:100000000C943E000C945B000C945B000C945B0021
:100010000C945B000C945B000C945B000C945B00F4
:100020000C945B000C945B000C945B000C945B00E4
:100030000C945B000C945B000C945B000C945B00D4
:100040000C945B000C945B000C945B000C945B00C4
:100050000C945B000C945B000C945B000C945B00B4
:100060000C945B000C945B000C945B000C945B00A4
:100070000C94AE000C945B000C945B0011241FBE2A
:10008000CFEFD0E1DEBFCDBF11E0A0E0B1E0E8EB03
:10009000F0E102C005900D92A833B107D9F711E045
:1000A000A8E3B1E001C01D92A33FB107E1F70E94B0
:1000B00023030C945A080C940000E9ECF0E08081D2
:1000C0008F7E808380818860808380818F7780832A
:1000D00010928D0110928C010895E9ECF0E080817E
:1000E000877F808380818068808380818061808336
:1000F0001092AF011092AE01109289011092880106
:100100000895E9ECF0E080818F7E808380818860B3
:10011000808380818F77808310928D0110928C0173
:100120000895982F8091C80085FFFCCF9093CE0052
:100130000895282F80918C0190918D01FC01E85B3E
:10014000FE4F2083019690938D0180938C018091C6
:10015000C80085FFFCCF2093CE0008951F920F9218
:100160000FB60F9211242F938F939F93EF93FF93CA
:100170008091AE019091AF012091CE00FC01E85931
:10018000FE4F208301969093AF018093AE01FF91C3
:10019000EF919F918F912F910F900FBE0F901F9015
:1001A00018950F931F93DF93CF930F92CDB7DEB7C0
:1001B0008C01198260E01BC04F5F5F4F83E04A3EB5
:1001C0005807F9F089812091AE013091AF01FD010E
:1001D000E80FF11DE217F30779F331C080918E012A
:1001E0008F3F11F06F5F03C089818F5F89838981A1
:1001F00090E0801791072CF440E050E0A62FB0E08B
:10020000E1CF898122E090E007C0E22FF0E0E257E1
:10021000FE4F8081980F2F5F89812817B0F320E06F
:1002200030E0892F90E08F3F910511F421E030E01C
:10023000C9010F90CF91DF911F910F910895E9812E
:100240008981F0E0E257FE4FA859BE4FA80FB11DBB
:100250008C9180838981882339F6C0CF9B01AC01C2
:1002600063E0220F331F441F551F6A95D1F760E0EA
:1002700074E284EF90E00E94C404C901DA0101979E
:10028000A109B109292F3A2F4B2F55270196A11DFE
:10029000B11D2093CD0081508093CC00E8ECF0E0BC
:1002A0008081826080831092AF011092AE01109223
:1002B00089011092880110928D0110928C0180E0CA
:1002C00090E00E946D0078940895EF92FF920F9352
:1002D0001F93CF93DF938C017B01EA010E945D00A5
:1002E0008FEF0E9499008FEF0E949900802F0E944B
:1002F000990084E00E94990082E00E9499008E2D6E
:100300000E9499008C2F0E949900C80106968E0DBC
:100310009F1D8C0F9D1F60E071E00E94B1048095CD
:100320000E949900C8010E946D00CE0106960E94AD
:10033000D100181619061CF02FEF3FEF16C0809160
:10034000920180938A0110928B01219729F4809168
:100350009301282F30E009C09091940180E0209112
:100360009301AC01420F511D9A01C901DF91CF9158
:100370001F910F91FF90EF900895DF92EF92FF92FF
:100380000F931F938C017B01D42E0E945D008FEF91
:100390000E9499008FEF0E949900802F0E9499007F
:1003A00084E00E94990083E00E9499008E2D0E94B3
:1003B00099008D2D0E949900095F1F4F0E0D1F1D82
:1003C000C8018D0D911D60E071E00E94B10480951F
:1003D0000E9499001F910F91FF90EF90DF90089578
:1003E000BF92CF92DF92EF92FF920F931F937C0107
:1003F0006B01B42E052F0E945D0010E08FEF0E946C
:1004000099008FEF0E9499008E2D0E94990085E03F
:100410000E94990083E00E9499008C2D0E9499000F
:100420008B2D0E949900802F0E94990088E090E017
:10043000E80EF91EEC0CFD1CEB0CF11C0E0D1F1D43
:10044000802F80950E9499001F910F91FF90EF904F
:10045000DF90CF90BF900895EF92FF920F931F937C
:10046000DF93CF9300D000D0CDB7DEB7E8E3F1E063
:100470001192119281E0E834F807D1F78AE089837C
:100480008A838B838C83A2E060E090E07AE0B4E61C
:1004900028EEE22E23E0F22E8E010F5F1F4FEA2F8F
:1004A000F0E0E055FE4F80818C3219F08A3009F07F
:1004B00056C05C814B815A30F8F4E62FF0E0EE0F25
:1004C000FF1FE85CFE4F898190E08E9D90018F9D1B
:1004D000300D9E9D300D11248A818B9FC001112407
:1004E000280F391F250F311D479FC0011124280FE8
:1004F000391F318320832CC02A814A3090F4E62FA3
:10050000F0E0EE0FFF1FE85CFE4F89818B9FC0017A
:100510001124279F90011124820F931F840F911D96
:100520000EC0E62FF0E089812A3060F4EE0FFF1F45
:10053000E85CFE4F879FC0011124820F911D9183BB
:10054000808306C0EE0FFF1FE85CFE4F80831182A0
:1005500079837A837B837C836F5F90E006C0F801A8
:10056000E90FF11D805380839F5F683010F4AF5F07
:1005700096CF0F900F900F900F90CF91DF911F911A
:100580000F91FF90EF900895CF93DF930E948A041C
:100590008CE191E09093F0018093EF018AE291E089
:1005A0009093EE018093ED0160E472E48FE090E0BF
:1005B0000E942E01209A28986091EF017091F0011D
:1005C00080E091E00E946705C0E0D0E0CE0169E1E3
:1005D00070E040E050E00E94BD012196C830D10596
:1005E000A9F7289888E893E120E931E0F9013197EB
:1005F000F1F70197D9F7C0E0D0E0CE0169E170E0F2
:1006000041E050E00E94BD012196C830D105A9F714
:10061000289A88E893E120E931E0F9013197F1F770
:100620000197D9F7C0E0D0E0CE0169E170E040E089
:1006300050E00E94BD012196C830D105A9F7289845
:10064000DF91CF9108952F923F924F925F926F92D8
:100650007F928F929F92AF92BF92DF92EF92FF9222
:100660000F931F93CF93DF930E94C402F0EBEF2E02
:10067000F1E0FF2EECE3DE2E71E0272E312C68E056
:10068000462E512C56E1A52E51E0B52E40E9842E80
:1006900041E0942E3DE0632E31E0732E4091ED0158
:1006A0005091EE0180EB91E06CE370E00E94FA045F
:1006B0008091B1018093EC01813769F5D701ED2D6F
:1006C0001D92EA95E9F78DB79EB708970FB6F89493
:1006D0009EBF0FBE8DBFEDB7FEB731968091EF0183
:1006E0009091F001ADB7BEB712969C938E9311977F
:1006F00084E091E09383828335822482578246820C
:100700000E942705ADB7BEB718960FB6F894BEBFC6
:100710000FBEADBFC3CF8C3689F58091B201813356
:1007200011F4289A03C0803309F42898F7018D2D1D
:1007300011928A95E9F783B100D000D000D0EDB7CF
:10074000FEB731962091EF013091F001ADB7BEB701
:1007500012963C932E9311977382628290E081707F
:100760009070958384830E942705EDB7FEB7369677
:100770000FB6F894FEBF0FBEEDBF90CF863709F0DD
:100780005EC00E942C02D701ED2D1D92EA95E9F77B
:1007900008E311E0C0E0D0E0D8014D915D918D01FA
:1007A000CE0160E270E00E94F0012196C830D105D0
:1007B00099F78AEF90E0F4013197F1F70197D9F7B3
:1007C0006091EF017091F00183E191E00E94670573
:1007D000C0E0D0E00091EF011091F001CE0160E2A5
:1007E00070E042E050E00E94650100D000D000D0EF
:1007F000EDB7FEB73196ADB7BEB712961C930E9308
:100800001197B382A282958384830E942705EDB756
:10081000FEB736960FB6F894FEBF0FBEEDBFC730D9
:10082000D10541F06091EF017091F0018CE290E010
:100830000E943B052196C830D10561F662C083361F
:1008400009F02CCF0E942C02D701ED2D1D92EA95C4
:10085000E9F708E311E0C0E0D0E0D8014D915D91E7
:100860008D01CE016EE170E00E94F0012196C8304A
:10087000D10599F76091EF017091F00189E191E064
:100880000E946705C0E0D0E0CE016EE270E041E07A
:1008900050E00E946501892BB9F70091EF0110919A
:1008A000F001CE0164E270E042E050E00E94650198
:1008B00000D000D000D0EDB7FEB73196ADB7BEB7CF
:1008C00012961C930E931197B382A2829583848310
:1008D0000E942705EDB7FEB736960FB6F894FEBF17
:1008E0000FBEEDBFC730D10541F06091EF017091AF
:1008F000F0018CE290E00E943B052196C830D105C2
:1009000019F66091EF017091F0018AE090E00E9489
:100910003B05C4CE1092C50089E18093C400E0EC91
:10092000F0E080818D7F808386E08093C20088E143
:100930008093C10008951F93182F8A3019F48DE019
:100940000E949B048091C00085FFFCCF1093C600DD
:100950001F9108958091C00087FFFCCF8091C60051
:10096000089597FB092E07260AD077FD04D02ED0D4
:1009700006D000201AF4709561957F4F0895F6F720
:10098000909581959F4F0895A1E21A2EAA1BBB1B3B
:10099000FD010DC0AA1FBB1FEE1FFF1FA217B3074B
:1009A000E407F50720F0A21BB30BE40BF50B661F61
:1009B000771F881F991F1A9469F760957095809525
:1009C00090959B01AC01BD01CF010895AA1BBB1BF3
:1009D00051E107C0AA1FBB1FA617B70710F0A61B3F
:1009E000B70B881F991F5A95A9F780959095BC0160
:1009F000CD010895A0E0B0E0E0E0F5E00C942D0812
:100A00007C016A01FA01838180FF19C0161617065E
:100A1000B4F4EB01219787010DC0C6010E94830742
:100A2000FFEF8F3F9F0759F0F80181938F010A97DD
:100A300019F02197209789F7F801108202C0EE245F
:100A4000FF24C701CDB7DEB7E8E00C944908A0E069
:100A5000B0E0EDE2F5E00C9433089E01275F3F4FD4
:100A60008D819E816F817885A9010E9490052096D5
:100A7000E2E00C944F080F931F93CF93DF938C0108
:100A8000EB018B8181FF1BC082FF0DC02E813F8156
:100A90008C819D812817390764F4E881F9810193DD
:100AA000F983E88306C0E885F985802F0995892BAD
:100AB00031F48E819F8101969F838E8302C00FEF58
:100AC0001FEFC801DF91CF911F910F910895EF9211
:100AD000FF920F931F93CF93DF937C018B01DB0178
:100AE00013968C9181FD03C0CFEFDFEF13C0C0E000
:100AF000D0E00BC0D8011896ED91FC911997B80180
:100B00000995892B11F0CFEFDFEFF70181917F017C
:100B1000882381F7CE01CDB7DEB7E6E00C944B0811
:100B2000ABE0B0E0E6E9F5E00C9423083C012B01D2
:100B30005A01FC0117821682838181FD03C06FEF89
:100B40007FEFC6C19AE0892E1E010894211C311C3A
:100B5000F3012381F20123FD859123FF81912F0170
:100B6000882309F4B2C1853239F423FD859123FF2E
:100B700081912F01853229F490E0B3010E943B0559
:100B8000E7CF982FFF24EE249924FFE1FF15D0F042
:100B90009B3269F09C3228F4903259F0933291F4F0
:100BA0000EC09D3249F0903369F441E024C052E018
:100BB000F52A84E0F82A28C098E0F92A25C0E0E167
:100BC000FE2A22C0F7FC29C0892F80538A3070F496
:100BD000F6FE05C0989C902C1124980E15C0E89C38
:100BE000E02C1124E80EF0E2FF2A0EC09E3229F418
:100BF000F6FC6BC140E4F42A07C09C3619F450E8B7
:100C0000F52A02C0983649F4F20123FD959123FF9D
:100C100091912F01992309F0B8CF892F8554833002
:100C200018F08052833038F444E050E0A40EB51E32
:100C30005FE359830FC0933631F0933779F09335E2
:100C400009F056C020C0F5018081898342E050E060
:100C5000A40EB51E610101E010E012C0F501C080D4
:100C6000D180F6FC03C06FEF7FEF02C0692D70E00A
:100C700042E050E0A40EB51EC6010E9478078C0128
:100C80005FE7F52214C0F501C080D180F6FC03C0F7
:100C90006FEF7FEF02C0692D70E042E050E0A40EDC
:100CA000B51EC6010E946D078C0150E8F52AF3FEBF
:100CB00007C01AC080E290E0B3010E943B05EA94AD
:100CC0008E2D90E008171907A8F30EC0F601F7FC67
:100CD0008591F7FE81916F0190E0B3010E943B0581
:100CE000E110EA94015010400115110579F7EAC0AE
:100CF000943611F0993669F5F7FE08C0F5012081A8
:100D000031814281538184E090E00AC0F501808105
:100D100091819C01442737FD4095542F82E090E05B
:100D2000A80EB91E9FE6F92257FF09C050954095BD
:100D3000309521953F4F4F4F5F4FE0E8FE2ACA01A3
:100D4000B901A1012AE030E00E94C507D82ED218CF
:100D500040C0953729F41F2D1F7E2AE030E01DC0CA
:100D60001F2D197F9F3661F0903720F4983509F0D8
:100D7000ACC00FC0903739F0983709F0A6C004C056
:100D800028E030E00AC0106114FD146020E130E07A
:100D900004C014FD166020E132E017FF08C0F50121
:100DA000608171818281938144E050E008C0F50147
:100DB00080819181BC0180E090E042E050E0A40E8F
:100DC000B51EA1010E94C507D82ED2188FE7F82EB4
:100DD000F122F6FE0BC05EEFF522D91438F4F4FED2
:100DE00007C0F2FC05C08FEEF82202C01D2D01C025
:100DF000192DF4FE0DC0FE01ED0DF11D8081803333
:100E000019F499EEF92208C01F5FF2FE05C003C075
:100E10008F2D867809F01F5F0F2DF3FC14C0F0FEB4
:100E20000FC01E1510F09D2C0BC09D2C9E0C911A0E
:100E30001E2D06C080E290E0B3010E943B051F5FBB
:100E40001E15C0F304C01E1510F4E11A01C0EE24F3
:100E500004FF0FC080E390E0B3010E943B0502FF56
:100E60001DC001FD03C088E790E00EC088E590E05A
:100E70000BC0802F867891F001FF02C08BE201C089
:100E800080E2F7FC8DE290E0B3010E943B0506C0D2
:100E900080E390E0B3010E943B059A94D914C0F31B
:100EA000DA94F101ED0DF11D808190E0B3010E9413
:100EB0003B05DD20A9F706C080E290E0B3010E9467
:100EC0003B05EA94EE20C1F743CEF30166817781BA
:100ED000CB012B96E2E10C943F08FC010590615098
:100EE00070400110D8F7809590958E0F9F1F089540
:100EF000FC016150704001900110D8F780959095E9
:100F00008E0F9F1F0895CF93DF93EC014B8140FF1D
:100F10001AC046FF0AC04F7B4B838E819F8101968A
:100F20009F838E838A81282F2BC042FF13C0E881C4
:100F3000F9818081282F332727FD30952115310530
:100F400029F440624B832FEF3FEF1BC03196F983AA
:100F5000E88311C0EA85FB85CE0109959C0197FFC6
:100F60000AC09B812F5F3F4F11F080E201C080E1FA
:100F7000892B8B83E8CF8E819F8101969F838E83FF
:100F800030E0C901DF91CF910895FA01AA272830F6
:100F900051F1203181F1E8946F936E7F6E5F7F4F46
:100FA0008F4F9F4FAF4FB1E03ED0B4E03CD0670FC2
:100FB000781F891F9A1FA11D680F791F8A1F911D15
:100FC000A11D6A0F711D811D911DA11D20D009F465
:100FD00068943F912AE0269F11243019305D3193A7
:100FE000DEF6CF010895462F4770405D4193B3E090
:100FF0000FD0C9F7F6CF462F4F70405D4A3318F037
:10100000495D31FD4052419302D0A9F7EACFB4E0E7
:10101000A6959795879577956795BA95C9F700979F
:101020006105710508959B01AC010A2E0694579540
:10103000479537952795BA95C9F7620F731F841F97
:10104000951FA01D08952F923F924F925F926F922D
:101050007F928F929F92AF92BF92CF92DF92EF9248
:10106000FF920F931F93CF93DF93CDB7DEB7CA1BC9
:10107000DB0B0FB6F894DEBF0FBECDBF09942A88F4
:10108000398848885F846E847D848C849B84AA849C
:10109000B984C884DF80EE80FD800C811B81AA8129
:1010A000B981CE0FD11D0FB6F894DEBF0FBECDBFF4
:0810B000ED010895F894FFCF53
:1010B8002E680A002E7125642C25640A002E6C25E2
:1010C800640A002E76002564002E630000000002EA
:1010D800000000009B040000000000000001000068
:0810E80000000000AA04000052
:00000001FF
