:100000000C943E000C945B000C945B000C945B0021
:100010000C945B000C945B000C945B000C945B00F4
:100020000C945B000C945B000C945B000C945B00E4
:100030000C945B000C945B000C945B000C945B00D4
:100040000C945B000C945B000C945B000C945B00C4
:100050000C945B000C945B000C945B000C945B00B4
:100060000C945B000C945B000C945B000C945B00A4
:100070000C94AE000C945B000C945B0011241FBE2A
:10008000CFEFD0E1DEBFCDBF11E0A0E0B1E0E2E410
:10009000F1E102C005900D92A233B107D9F711E04A
:1000A000A2E3B1E001C01D92A13EB107E1F70E94B9
:1000B00028030C949F080C940000E9ECF0E0808188
:1000C0008F7E808380818860808380818F7780832A
:1000D00010927B0110927A010895E9ECF0E08081A2
:1000E000877F808380818068808380818061808336
:1000F00010929D0110929C0110927701109276014E
:100100000895E9ECF0E080818F7E808380818860B3
:10011000808380818F77808310927B0110927A0197
:100120000895982F8091C80085FFFCCF9093CE0052
:100130000895282F80917A0190917B01FC01EA5C5F
:10014000FE4F2083019690937B0180937A018091EA
:10015000C80085FFFCCF2093CE0008951F920F9218
:100160000FB60F9211242F938F939F93EF93FF93CA
:1001700080919C0190919D012091CE00FC01EA5A52
:10018000FE4F2083019690939D0180939C01FF91E7
:10019000EF919F918F912F910F900FBE0F901F9015
:1001A00018950F931F93DF93CF930F92CDB7DEB7C0
:1001B0008C01198260E01BC04F5F5F4F83E04A3EB5
:1001C0005807F9F0898120919C0130919D01FD0132
:1001D000E80FF11DE217F30779F331C080917C013C
:1001E0008F3F11F06F5F03C089818F5F89838981A1
:1001F00090E0801791072CF440E050E0A62FB0E08B
:10020000E1CF898122E090E007C0E22FF0E0E458DE
:10021000FE4F8081980F2F5F89812817B0F320E06F
:1002200030E0892F90E08F3F910511F421E030E01C
:10023000C9010F90CF91DF911F910F910895E9812E
:100240008981F0E0E458FE4FAA5ABE4FA80FB11DB5
:100250008C9180838981882339F6C0CF9B01AC01C2
:1002600063E0220F331F441F551F6A95D1F760E0EA
:1002700074E284EF90E00E940905C901DA01019758
:10028000A109B109292F3A2F4B2F55270196A11DFE
:10029000B11D2093CD0081508093CC00E8ECF0E0BC
:1002A00080818260808310929D0110929C01109247
:1002B00077011092760110927B0110927A0180E012
:1002C00090E00E946D0078940895EF92FF920F9352
:1002D0001F93CF93DF938C017B01EA010E945D00A5
:1002E0008FEF0E9499008FEF0E949900802F0E944B
:1002F000990084E00E94990082E00E9499008E2D6E
:100300000E9499008C2F0E949900C80106968E0DBC
:100310009F1D8C0F9D1F60E071E00E94F604809588
:100320000E949900C8010E946D00CE0106960E94AD
:10033000D100181619061CF02FEF3FEF16C0809160
:1003400080018093780110927901219729F480919E
:100350008101282F30E009C09091820180E0209136
:100360008101AC01420F511D9A01C901DF91CF916A
:100370001F910F91FF90EF900895DF92EF92FF92FF
:100380000F931F938C017B01D42E0E945D008FEF91
:100390000E9499008FEF0E949900802F0E9499007F
:1003A00084E00E94990083E00E9499008E2D0E94B3
:1003B00099008D2D0E949900095F1F4F0E0D1F1D82
:1003C000C8018D0D911D60E071E00E94F6048095DA
:1003D0000E9499001F910F91FF90EF90DF90089578
:1003E000BF92CF92DF92EF92FF920F931F937C0107
:1003F0006B01B42E052F0E945D0010E08FEF0E946C
:1004000099008FEF0E9499008E2D0E94990085E03F
:100410000E94990083E00E9499008C2D0E9499000F
:100420008B2D0E949900802F0E94990088E090E017
:10043000E80EF91EEC0CFD1CEB0CF11C0E0D1F1D43
:10044000802F80950E9499001F910F91FF90EF904F
:10045000DF90CF90BF900895EF92FF920F931F937C
:10046000DF93CF9300D000D0CDB7DEB71092330129
:100470001092320110923501109234018AE0898382
:100480008A838B838C83A2E060E090E07AE0B4E61C
:1004900028EEE22E23E0F22E8E010F5F1F4FEA2F8F
:1004A000F0E0E256FE4F80818C3219F08A3009F07C
:1004B00056C05C814B815A30F8F4E62FF0E0EE0F25
:1004C000FF1FEE5CFE4F898190E08E9D90018F9D15
:1004D000300D9E9D300D11248A818B9FC001112407
:1004E000280F391F250F311D479FC0011124280FE8
:1004F000391F318320832CC02A814A3090F4E62FA3
:10050000F0E0EE0FFF1FEE5CFE4F89818B9FC00174
:100510001124279F90011124820F931F840F911D96
:100520000EC0E62FF0E089812A3060F4EE0FFF1F45
:10053000EE5CFE4F879FC0011124820F911D9183B5
:10054000808306C0EE0FFF1FEE5CFE4F808311829A
:1005500079837A837B837C836F5F90E006C0F801A8
:10056000E90FF11D805380839F5F623010F4AF5F0D
:1005700096CF0F900F900F900F90CF91DF911F911A
:100580000F91FF90EF9008950E94CF0486E191E0D3
:100590009093DE018093DD0184E291E09093DC0191
:1005A0008093DB0160E472E48FE090E00E942E0112
:1005B000209A28986091DD017091DE0180E091E041
:1005C0000E94AC0580E090E069E170E040E050E01E
:1005D0000E94BD0181E090E069E170E040E050E000
:1005E0000E94BD01289888E893E120E931E0F901F3
:1005F0003197F1F70197D9F780E090E069E170E079
:1006000041E050E00E94BD0181E090E069E170E0CE
:1006100041E050E00E94BD01289A88E893E120E97A
:1006200031E0F9013197F1F70197D9F780E090E0D7
:1006300069E170E040E050E00E94BD0181E090E09F
:1006400069E170E040E050E00E94BD012898089503
:100650002F923F924F925F926F927F928F929F92D2
:10066000AF92BF92CF92DF92EF92FF920F931F93C0
:10067000DF93CF93CDB7DEB70E94C402EEE9CE2E52
:10068000E1E0DE2E7CE3B72E60E1662E61E0762E9F
:100690005AE0852E48EE242E43E0342E3AE0432ED5
:1006A00031E0532E4091DB015091DC018EE991E065
:1006B0006CE370E00E943F0580919F018093DA0116
:1006C000813731F5D601EB2D1D92EA95E9F700D07F
:1006D00000D000D0EDB7FEB731968091DD0190914A
:1006E000DE01ADB7BEB712969C938E93119784E04E
:1006F00091E093838283158214820E946C05ADB7CA
:10070000BEB716960FB6F894BEBF0FBEADBFCACF28
:100710008C3689F58091A001813311F4289A03C0A9
:10072000803309F42898F6012B2D11922A95E9F7C8
:1007300083B100D000D000D0EDB7FEB73196209144
:10074000DD013091DE01ADB7BEB712963C932E931A
:1007500011975382428290E08170907095838483D8
:100760000E946C05EDB7FEB736960FB6F894FEBF43
:100770000FBEEDBF97CF863709F09FC0ADB69EB6CE
:1007800094E001C09F5FE92EFF24F701E256FE4F7F
:1007900080818A30B9F7692F64508DB79EB7861B68
:1007A00091090FB6F8949EBF0FBE8DBFADB7BEB70F
:1007B000119642EA51E020E030E00BC08D01020FBB
:1007C000131FFA018191AF018053F80180832F5FDD
:1007D0003F4F261798F36430F9F48C9190E0829D96
:1007E000A001839D500D929D500D112411968C9166
:1007F0001197F4E68F9FC0011124480F591F1396DB
:100800008C911397480F511D12968C91889DC001B1
:100810001124480F591F1EC0633081F48C9124E6C7
:10082000829FA001112411968C911197889DC0017F
:100830001124480F591F12968C9108C04C916230B8
:1008400041F4489DA001112411968C91480F511D2F
:1008500001C050E08091A00190E0C09760E270E09C
:100860000E94F001D601EB2D1D92EA95E9F7009167
:10087000DD011091DE01C70160E270E042E050E06E
:100880000E94650100D000D000D0EDB7FEB73196D0
:10089000ADB7BEB712961C930E9311977382628206
:1008A000958384830E946C052A2D392DC9010FB6CA
:1008B000F8949EBF0FBE8DBFF5CE833609F0F2CE01
:1008C0000E942C02F6012B2D11922A95E9F74091F6
:1008D00032015091330180E090E06EE170E00E94BF
:1008E000F001409134015091350181E090E06EE1DA
:1008F00070E00E94F0016091DD017091DE0183E102
:1009000091E00E94AC05EE24FF24C7016EE270E086
:1009100041E050E00E946501892BB9F70091DD01AB
:100920001091DE01C70164E270E042E050E00E94F5
:10093000650100D000D000D0EDB7FEB73196ADB75D
:10094000BEB712961C930E931197738262829583A1
:1009500084830E946C05EDB7FEB736960FB6F89407
:10096000FEBF0FBEEDBFE114F10441F46091DD0163
:100970007091DE018CE290E00E9480050894E11CF9
:10098000F11CF2E0EF16F10409F0BFCF6091DD0138
:100990007091DE018AE090E00E94800583CE109283
:1009A000C50089E18093C400E0ECF0E080818D7F98
:1009B000808386E08093C20088E18093C10008951F
:1009C0001F93182F8A3019F48DE00E94E004809163
:1009D000C00085FFFCCF1093C6001F910895809141
:1009E000C00087FFFCCF8091C600089597FB092EB9
:1009F00007260AD077FD04D02ED006D000201AF4A6
:100A0000709561957F4F0895F6F7909581959F4F6A
:100A10000895A1E21A2EAA1BBB1BFD010DC0AA1F3F
:100A2000BB1FEE1FFF1FA217B307E407F50720F057
:100A3000A21BB30BE40BF50B661F771F881F991FD2
:100A40001A9469F760957095809590959B01AC011B
:100A5000BD01CF010895AA1BBB1B51E107C0AA1F0E
:100A6000BB1FA617B70710F0A61BB70B881F991F4F
:100A70005A95A9F780959095BC01CD010895A0E005
:100A8000B0E0E5E4F5E00C9472087C016A01FA013B
:100A9000838180FF19C016161706B4F4EB01219765
:100AA00087010DC0C6010E94C807FFEF8F3F9F0757
:100AB00059F0F80181938F010A9719F02197209737
:100AC00089F7F801108202C0EE24FF24C701CDB7D8
:100AD000DEB7E8E00C948E08A0E0B0E0E2E7F5E0D5
:100AE0000C9478089E01275F3F4F8D819E816F8116
:100AF0007885A9010E94D5052096E2E00C9494081F
:100B00000F931F93CF93DF938C01EB018B8181FFB8
:100B10001BC082FF0DC02E813F818C819D812817D3
:100B2000390764F4E881F9810193F983E88306C009
:100B3000E885F985802F0995892B31F48E819F8175
:100B400001969F838E8302C00FEF1FEFC801DF91D4
:100B5000CF911F910F910895EF92FF920F931F93E2
:100B6000CF93DF937C018B01DB0113968C9181FD88
:100B700003C0CFEFDFEF13C0C0E0D0E00BC0D8015F
:100B80001896ED91FC911997B8010995892B11F0F0
:100B9000CFEFDFEFF70181917F01882381F7CE014D
:100BA000CDB7DEB7E6E00C949008ABE0B0E0EBED3B
:100BB000F5E00C9468083C012B015A01FC011782F6
:100BC0001682838181FD03C06FEF7FEFC6C19AE07B
:100BD000892E1E010894211C311CF3012381F2018E
:100BE00023FD859123FF81912F01882309F4B2C150
:100BF000853239F423FD859123FF81912F018532C0
:100C000029F490E0B3010E948005E7CF982FFF24DC
:100C1000EE249924FFE1FF15D0F09B3269F09C325D
:100C200028F4903259F0933291F40EC09D3249F07D
:100C3000903369F441E024C052E0F52A84E0F82AB8
:100C400028C098E0F92A25C0E0E1FE2A22C0F7FC7E
:100C500029C0892F80538A3070F4F6FE05C0989C15
:100C6000902C1124980E15C0E89CE02C1124E80E5D
:100C7000F0E2FF2A0EC09E3229F4F6FC6BC140E47C
:100C8000F42A07C09C3619F450E8F52A02C09836B9
:100C900049F4F20123FD959123FF91912F019923AE
:100CA00009F0B8CF892F8554833018F080528330F3
:100CB00038F444E050E0A40EB51E5FE359830FC042
:100CC000933631F0933779F0933509F056C020C050
:100CD000F5018081898342E050E0A40EB51E6101D8
:100CE00001E010E012C0F501C080D180F6FC03C025
:100CF0006FEF7FEF02C0692D70E042E050E0A40E7C
:100D0000B51EC6010E94BD078C015FE7F52214C025
:100D1000F501C080D180F6FC03C06FEF7FEF02C009
:100D2000692D70E042E050E0A40EB51EC6010E949D
:100D3000B2078C0150E8F52AF3FE07C01AC080E222
:100D400090E0B3010E948005EA948E2D90E0081790
:100D50001907A8F30EC0F601F7FC8591F7FE819103
:100D60006F0190E0B3010E948005E110EA94015008
:100D700010400115110579F7EAC0943611F0993643
:100D800069F5F7FE08C0F501208131814281538168
:100D900084E090E00AC0F501808191819C014427A4
:100DA00037FD4095542F82E090E0A80EB91E9FE6D3
:100DB000F92257FF09C050954095309521953F4F36
:100DC0004F4F5F4FE0E8FE2ACA01B901A1012AE0B6
:100DD00030E00E940A08D82ED21840C0953729F476
:100DE0001F2D1F7E2AE030E01DC01F2D197F9F366A
:100DF00061F0903720F4983509F0ACC00FC09037FF
:100E000039F0983709F0A6C004C028E030E00AC0E5
:100E1000106114FD146020E130E004C014FD166080
:100E200020E132E017FF08C0F50160817181828105
:100E3000938144E050E008C0F50180819181BC01BC
:100E400080E090E042E050E0A40EB51EA1010E94B7
:100E50000A08D82ED2188FE7F82EF122F6FE0BC022
:100E60005EEFF522D91438F4F4FE07C0F2FC05C099
:100E70008FEEF82202C01D2D01C0192DF4FE0DC009
:100E8000FE01ED0DF11D8081803319F499EEF922F8
:100E900008C01F5FF2FE05C003C08F2D867809F0E1
:100EA0001F5F0F2DF3FC14C0F0FE0FC01E1510F0D5
:100EB0009D2C0BC09D2C9E0C911A1E2D06C080E20D
:100EC00090E0B3010E9480051F5F1E15C0F304C0AF
:100ED0001E1510F4E11A01C0EE2404FF0FC080E3D8
:100EE00090E0B3010E94800502FF1DC001FD03C018
:100EF00088E790E00EC088E590E00BC0802F8678F0
:100F000091F001FF02C08BE201C080E2F7FC8DE2AC
:100F100090E0B3010E94800506C080E390E0B30139
:100F20000E9480059A94D914C0F3DA94F101ED0D72
:100F3000F11D808190E0B3010E948005DD20A9F7BA
:100F400006C080E290E0B3010E948005EA94EE20A2
:100F5000C1F743CEF30166817781CB012B96E2E1A5
:100F60000C948408FC010590615070400110D8F782
:100F7000809590958E0F9F1F0895FC0161507040E1
:100F800001900110D8F7809590958E0F9F1F0895BE
:100F9000CF93DF93EC014B8140FF1AC046FF0AC09C
:100FA0004F7B4B838E819F8101969F838E838A81A5
:100FB000282F2BC042FF13C0E881F9818081282FA0
:100FC000332727FD30952115310529F440624B83E5
:100FD0002FEF3FEF1BC03196F983E88311C0EA85FC
:100FE000FB85CE0109959C0197FF0AC09B812F5F6D
:100FF0003F4F11F080E201C080E1892B8B83E8CF65
:101000008E819F8101969F838E8330E0C901DF919D
:10101000CF910895FA01AA27283051F1203181F1AA
:10102000E8946F936E7F6E5F7F4F8F4F9F4FAF4FF0
:10103000B1E03ED0B4E03CD0670F781F891F9A1F03
:10104000A11D680F791F8A1F911DA11D6A0F711DB7
:10105000811D911DA11D20D009F468943F912AE0C3
:10106000269F11243019305D3193DEF6CF010895AB
:10107000462F4770405D4193B3E00FD0C9F7F6CFDC
:10108000462F4F70405D4A3318F0495D31FD4052A4
:10109000419302D0A9F7EACFB4E0A695979587953A
:1010A00077956795BA95C9F7009761057105089519
:1010B0009B01AC010A2E06945795479537952795C5
:1010C000BA95C9F7620F731F841F951FA01D08955D
:1010D0002F923F924F925F926F927F928F929F9248
:1010E000AF92BF92CF92DF92EF92FF920F931F9336
:1010F000CF93DF93CDB7DEB7CA1BDB0B0FB6F894E7
:10110000DEBF0FBECDBF09942A88398848885F8426
:101110006E847D848C849B84AA84B984C884DF8097
:10112000EE80FD800C811B81AA81B981CE0FD11D7B
:101130000FB6F894DEBF0FBECDBFED010895F89451
:02114000FFCFDF
:101142002E680A002E7125640A002E6C25640A009E
:101152002564002E63000000000200000000E0048D
:101162000000000000000001000000000000EF0489
:0211720000007B
:00000001FF
